{
  "_format": "hh-sol-artifact-1",
  "contractName": "NFTMarket",
  "sourceName": "contracts/Market.sol",
  "abi": [
    {
      "inputs": [
        {
          "internalType": "address",
          "name": "_owner",
          "type": "address"
        }
      ],
      "stateMutability": "nonpayable",
      "type": "constructor"
    },
    {
      "anonymous": false,
      "inputs": [
        {
          "indexed": true,
          "internalType": "uint256",
          "name": "itemId",
          "type": "uint256"
        },
        {
          "indexed": true,
          "internalType": "address",
          "name": "nftContract",
          "type": "address"
        },
        {
          "indexed": true,
          "internalType": "uint256",
          "name": "tokenId",
          "type": "uint256"
        },
        {
          "indexed": false,
          "internalType": "address",
          "name": "creator",
          "type": "address"
        },
        {
          "indexed": false,
          "internalType": "address",
          "name": "seller",
          "type": "address"
        },
        {
          "indexed": false,
          "internalType": "address",
          "name": "owner",
          "type": "address"
        },
        {
          "indexed": false,
          "internalType": "uint256",
          "name": "price",
          "type": "uint256"
        },
        {
          "indexed": false,
          "internalType": "bool",
          "name": "sold",
          "type": "bool"
        },
        {
          "indexed": false,
          "internalType": "uint256",
          "name": "rate",
          "type": "uint256"
        }
      ],
      "name": "MarketItemCreated",
      "type": "event"
    },
    {
      "inputs": [
        {
          "internalType": "address",
          "name": "nftContract",
          "type": "address"
        },
        {
          "internalType": "uint256",
          "name": "tokenId",
          "type": "uint256"
        },
        {
          "internalType": "uint256",
          "name": "price",
          "type": "uint256"
        },
        {
          "internalType": "uint256",
          "name": "rate",
          "type": "uint256"
        }
      ],
      "name": "createMarketItem",
      "outputs": [],
      "stateMutability": "payable",
      "type": "function"
    },
    {
      "inputs": [
        {
          "internalType": "address",
          "name": "nftContract",
          "type": "address"
        },
        {
          "internalType": "uint256",
          "name": "itemId",
          "type": "uint256"
        }
      ],
      "name": "createMarketSale",
      "outputs": [],
      "stateMutability": "payable",
      "type": "function"
    },
    {
      "inputs": [],
      "name": "fetchItemsCreated",
      "outputs": [
        {
          "components": [
            {
              "internalType": "uint256",
              "name": "itemId",
              "type": "uint256"
            },
            {
              "internalType": "address",
              "name": "nftContract",
              "type": "address"
            },
            {
              "internalType": "uint256",
              "name": "tokenId",
              "type": "uint256"
            },
            {
              "internalType": "address payable",
              "name": "creator",
              "type": "address"
            },
            {
              "internalType": "address payable",
              "name": "seller",
              "type": "address"
            },
            {
              "internalType": "address payable",
              "name": "owner",
              "type": "address"
            },
            {
              "internalType": "uint256",
              "name": "price",
              "type": "uint256"
            },
            {
              "internalType": "bool",
              "name": "sold",
              "type": "bool"
            },
            {
              "internalType": "uint256",
              "name": "rate",
              "type": "uint256"
            }
          ],
          "internalType": "struct NFTMarket.MarketItem[]",
          "name": "",
          "type": "tuple[]"
        }
      ],
      "stateMutability": "view",
      "type": "function"
    },
    {
      "inputs": [],
      "name": "fetchMarketItems",
      "outputs": [
        {
          "components": [
            {
              "internalType": "uint256",
              "name": "itemId",
              "type": "uint256"
            },
            {
              "internalType": "address",
              "name": "nftContract",
              "type": "address"
            },
            {
              "internalType": "uint256",
              "name": "tokenId",
              "type": "uint256"
            },
            {
              "internalType": "address payable",
              "name": "creator",
              "type": "address"
            },
            {
              "internalType": "address payable",
              "name": "seller",
              "type": "address"
            },
            {
              "internalType": "address payable",
              "name": "owner",
              "type": "address"
            },
            {
              "internalType": "uint256",
              "name": "price",
              "type": "uint256"
            },
            {
              "internalType": "bool",
              "name": "sold",
              "type": "bool"
            },
            {
              "internalType": "uint256",
              "name": "rate",
              "type": "uint256"
            }
          ],
          "internalType": "struct NFTMarket.MarketItem[]",
          "name": "",
          "type": "tuple[]"
        }
      ],
      "stateMutability": "view",
      "type": "function"
    },
    {
      "inputs": [],
      "name": "fetchMyNFTs",
      "outputs": [
        {
          "components": [
            {
              "internalType": "uint256",
              "name": "itemId",
              "type": "uint256"
            },
            {
              "internalType": "address",
              "name": "nftContract",
              "type": "address"
            },
            {
              "internalType": "uint256",
              "name": "tokenId",
              "type": "uint256"
            },
            {
              "internalType": "address payable",
              "name": "creator",
              "type": "address"
            },
            {
              "internalType": "address payable",
              "name": "seller",
              "type": "address"
            },
            {
              "internalType": "address payable",
              "name": "owner",
              "type": "address"
            },
            {
              "internalType": "uint256",
              "name": "price",
              "type": "uint256"
            },
            {
              "internalType": "bool",
              "name": "sold",
              "type": "bool"
            },
            {
              "internalType": "uint256",
              "name": "rate",
              "type": "uint256"
            }
          ],
          "internalType": "struct NFTMarket.MarketItem[]",
          "name": "",
          "type": "tuple[]"
        }
      ],
      "stateMutability": "view",
      "type": "function"
    },
    {
      "inputs": [
        {
          "internalType": "address",
          "name": "nftContract",
          "type": "address"
        },
        {
          "internalType": "uint256",
          "name": "itemId",
          "type": "uint256"
        },
        {
          "internalType": "uint256",
          "name": "price",
          "type": "uint256"
        },
        {
          "internalType": "uint256",
          "name": "rate",
          "type": "uint256"
        }
      ],
      "name": "reList",
      "outputs": [],
      "stateMutability": "payable",
      "type": "function"
    },
    {
      "inputs": [
        {
          "internalType": "address",
          "name": "_owner",
          "type": "address"
        }
      ],
      "name": "setOwner",
      "outputs": [],
      "stateMutability": "nonpayable",
      "type": "function"
    },
    {
      "inputs": [
        {
          "internalType": "uint256",
          "name": "_royal",
          "type": "uint256"
        }
      ],
      "name": "setRoyal",
      "outputs": [],
      "stateMutability": "nonpayable",
      "type": "function"
    }
  ],
  "bytecode": "0x6080604052600a6005553480156200001657600080fd5b50604051620024f7380380620024f783398181016040528101906200003c9190620000e4565b600160008190555033600460006101000a81548173ffffffffffffffffffffffffffffffffffffffff021916908373ffffffffffffffffffffffffffffffffffffffff16021790555080600360006101000a81548173ffffffffffffffffffffffffffffffffffffffff021916908373ffffffffffffffffffffffffffffffffffffffff160217905550506200015e565b600081519050620000de8162000144565b92915050565b600060208284031215620000f757600080fd5b60006200010784828501620000cd565b91505092915050565b60006200011d8262000124565b9050919050565b600073ffffffffffffffffffffffffffffffffffffffff82169050919050565b6200014f8162000110565b81146200015b57600080fd5b50565b612389806200016e6000396000f3fe60806040526004361061007b5760003560e01c8063c23b139e1161004e578063c23b139e1461011b578063e5acdbf414610137578063e97d4d7a14610153578063f064c32e1461017c5761007b565b80630f08efe01461008057806313af4035146100ab578063202e3740146100d4578063599ba234146100ff575b600080fd5b34801561008c57600080fd5b506100956101a7565b6040516100a29190611f59565b60405180910390f35b3480156100b757600080fd5b506100d260048036038101906100cd9190611bad565b61051e565b005b3480156100e057600080fd5b506100e96105bc565b6040516100f69190611f59565b60405180910390f35b61011960048036038101906101149190611c12565b6109b7565b005b61013560048036038101906101309190611bd6565b610d51565b005b610151600480360381019061014c9190611c12565b61141a565b005b34801561015f57600080fd5b5061017a60048036038101906101759190611c75565b611658565b005b34801561018857600080fd5b50610191611662565b60405161019e9190611f59565b60405180910390f35b606060006101b56001611a5d565b905060006101c36002611a5d565b6101cd6001611a5d565b6101d79190612126565b90506000808267ffffffffffffffff81111561021c577f4e487b7100000000000000000000000000000000000000000000000000000000600052604160045260246000fd5b60405190808252806020026020018201604052801561025557816020015b610242611add565b81526020019060019003908161023a5790505b50905060005b8481101561051357600073ffffffffffffffffffffffffffffffffffffffff166006600060018461028c9190612045565b815260200190815260200160002060050160009054906101000a900473ffffffffffffffffffffffffffffffffffffffff1673ffffffffffffffffffffffffffffffffffffffff1614156105005760006001826102e99190612045565b905060006006600083815260200190815260200160002090508060405180610120016040529081600082015481526020016001820160009054906101000a900473ffffffffffffffffffffffffffffffffffffffff1673ffffffffffffffffffffffffffffffffffffffff1673ffffffffffffffffffffffffffffffffffffffff168152602001600282015481526020016003820160009054906101000a900473ffffffffffffffffffffffffffffffffffffffff1673ffffffffffffffffffffffffffffffffffffffff1673ffffffffffffffffffffffffffffffffffffffff1681526020016004820160009054906101000a900473ffffffffffffffffffffffffffffffffffffffff1673ffffffffffffffffffffffffffffffffffffffff1673ffffffffffffffffffffffffffffffffffffffff1681526020016005820160009054906101000a900473ffffffffffffffffffffffffffffffffffffffff1673ffffffffffffffffffffffffffffffffffffffff1673ffffffffffffffffffffffffffffffffffffffff168152602001600682015481526020016007820160009054906101000a900460ff161515151581526020016008820154815250508486815181106104e3577f4e487b7100000000000000000000000000000000000000000000000000000000600052603260045260246000fd5b60200260200101819052506001856104fb9190612045565b945050505b808061050b906121b4565b91505061025b565b508094505050505090565b600460009054906101000a900473ffffffffffffffffffffffffffffffffffffffff1673ffffffffffffffffffffffffffffffffffffffff163373ffffffffffffffffffffffffffffffffffffffff161461057857600080fd5b80600360006101000a81548173ffffffffffffffffffffffffffffffffffffffff021916908373ffffffffffffffffffffffffffffffffffffffff16021790555050565b606060006105ca6001611a5d565b905060008060005b83811015610673573373ffffffffffffffffffffffffffffffffffffffff16600660006001846106029190612045565b815260200190815260200160002060050160009054906101000a900473ffffffffffffffffffffffffffffffffffffffff1673ffffffffffffffffffffffffffffffffffffffff1614156106605760018361065d9190612045565b92505b808061066b906121b4565b9150506105d2565b5060008267ffffffffffffffff8111156106b6577f4e487b7100000000000000000000000000000000000000000000000000000000600052604160045260246000fd5b6040519080825280602002602001820160405280156106ef57816020015b6106dc611add565b8152602001906001900390816106d45790505b50905060005b848110156109ac573373ffffffffffffffffffffffffffffffffffffffff16600660006001846107259190612045565b815260200190815260200160002060050160009054906101000a900473ffffffffffffffffffffffffffffffffffffffff1673ffffffffffffffffffffffffffffffffffffffff1614156109995760006001826107829190612045565b905060006006600083815260200190815260200160002090508060405180610120016040529081600082015481526020016001820160009054906101000a900473ffffffffffffffffffffffffffffffffffffffff1673ffffffffffffffffffffffffffffffffffffffff1673ffffffffffffffffffffffffffffffffffffffff168152602001600282015481526020016003820160009054906101000a900473ffffffffffffffffffffffffffffffffffffffff1673ffffffffffffffffffffffffffffffffffffffff1673ffffffffffffffffffffffffffffffffffffffff1681526020016004820160009054906101000a900473ffffffffffffffffffffffffffffffffffffffff1673ffffffffffffffffffffffffffffffffffffffff1673ffffffffffffffffffffffffffffffffffffffff1681526020016005820160009054906101000a900473ffffffffffffffffffffffffffffffffffffffff1673ffffffffffffffffffffffffffffffffffffffff1673ffffffffffffffffffffffffffffffffffffffff168152602001600682015481526020016007820160009054906101000a900460ff1615151515815260200160088201548152505084868151811061097c577f4e487b7100000000000000000000000000000000000000000000000000000000600052603260045260246000fd5b60200260200101819052506001856109949190612045565b945050505b80806109a4906121b4565b9150506106f5565b508094505050505090565b600260005414156109fd576040517f08c379a00000000000000000000000000000000000000000000000000000000081526004016109f490611fbb565b60405180910390fd5b600260008190555060008211610a48576040517f08c379a0000000000000000000000000000000000000000000000000000000008152600401610a3f90611fdb565b60405180910390fd5b610a526001611a6b565b6000610a5e6001611a5d565b90506040518061012001604052808281526020018673ffffffffffffffffffffffffffffffffffffffff1681526020018581526020013373ffffffffffffffffffffffffffffffffffffffff1681526020013373ffffffffffffffffffffffffffffffffffffffff168152602001600073ffffffffffffffffffffffffffffffffffffffff16815260200184815260200160001515815260200183815250600660008381526020019081526020016000206000820151816000015560208201518160010160006101000a81548173ffffffffffffffffffffffffffffffffffffffff021916908373ffffffffffffffffffffffffffffffffffffffff1602179055506040820151816002015560608201518160030160006101000a81548173ffffffffffffffffffffffffffffffffffffffff021916908373ffffffffffffffffffffffffffffffffffffffff16021790555060808201518160040160006101000a81548173ffffffffffffffffffffffffffffffffffffffff021916908373ffffffffffffffffffffffffffffffffffffffff16021790555060a08201518160050160006101000a81548173ffffffffffffffffffffffffffffffffffffffff021916908373ffffffffffffffffffffffffffffffffffffffff16021790555060c0820151816006015560e08201518160070160006101000a81548160ff02191690831515021790555061010082015181600801559050508473ffffffffffffffffffffffffffffffffffffffff166323b872dd3330876040518463ffffffff1660e01b8152600401610cb493929190611f22565b600060405180830381600087803b158015610cce57600080fd5b505af1158015610ce2573d6000803e3d6000fd5b50505050838573ffffffffffffffffffffffffffffffffffffffff16827ffe160c3a286a75d0fc96e3f48f3734ebf7020b9502d968a24c727680d688fa22333360008960008a604051610d3a96959493929190611ec1565b60405180910390a450600160008190555050505050565b60026000541415610d97576040517f08c379a0000000000000000000000000000000000000000000000000000000008152600401610d8e90611fbb565b60405180910390fd5b6002600081905550600060066000838152602001908152602001600020600601549050600060066000848152602001908152602001600020600201549050813414610e17576040517f08c379a0000000000000000000000000000000000000000000000000000000008152600401610e0e90611f9b565b60405180910390fd5b60006006600085815260200190815260200160002060405180610120016040529081600082015481526020016001820160009054906101000a900473ffffffffffffffffffffffffffffffffffffffff1673ffffffffffffffffffffffffffffffffffffffff1673ffffffffffffffffffffffffffffffffffffffff168152602001600282015481526020016003820160009054906101000a900473ffffffffffffffffffffffffffffffffffffffff1673ffffffffffffffffffffffffffffffffffffffff1673ffffffffffffffffffffffffffffffffffffffff1681526020016004820160009054906101000a900473ffffffffffffffffffffffffffffffffffffffff1673ffffffffffffffffffffffffffffffffffffffff1673ffffffffffffffffffffffffffffffffffffffff1681526020016005820160009054906101000a900473ffffffffffffffffffffffffffffffffffffffff1673ffffffffffffffffffffffffffffffffffffffff1673ffffffffffffffffffffffffffffffffffffffff168152602001600682015481526020016007820160009054906101000a900460ff161515151581526020016008820154815250509050600081608001519050600360009054906101000a900473ffffffffffffffffffffffffffffffffffffffff1673ffffffffffffffffffffffffffffffffffffffff168173ffffffffffffffffffffffffffffffffffffffff161415611080578073ffffffffffffffffffffffffffffffffffffffff166108fc349081150290604051600060405180830381858888f1935050505015801561107a573d6000803e3d6000fd5b5061130d565b816060015173ffffffffffffffffffffffffffffffffffffffff168173ffffffffffffffffffffffffffffffffffffffff161461122057600082610100015160648460c001516110d0919061209b565b6110da91906120cc565b9050600060055460648560c001516110f2919061209b565b6110fc91906120cc565b9050600081838660c001516111119190612126565b61111b9190612126565b9050600360009054906101000a900473ffffffffffffffffffffffffffffffffffffffff1673ffffffffffffffffffffffffffffffffffffffff166108fc849081150290604051600060405180830381858888f19350505050158015611185573d6000803e3d6000fd5b50846060015173ffffffffffffffffffffffffffffffffffffffff166108fc839081150290604051600060405180830381858888f193505050501580156111d0573d6000803e3d6000fd5b508373ffffffffffffffffffffffffffffffffffffffff166108fc829081150290604051600060405180830381858888f19350505050158015611217573d6000803e3d6000fd5b5050505061130c565b600082610100015160648460c00151611239919061209b565b61124391906120cc565b90506000818460c001516112579190612126565b9050600360009054906101000a900473ffffffffffffffffffffffffffffffffffffffff1673ffffffffffffffffffffffffffffffffffffffff166108fc839081150290604051600060405180830381858888f193505050501580156112c1573d6000803e3d6000fd5b508273ffffffffffffffffffffffffffffffffffffffff166108fc829081150290604051600060405180830381858888f19350505050158015611308573d6000803e3d6000fd5b5050505b5b8573ffffffffffffffffffffffffffffffffffffffff166323b872dd3033866040518463ffffffff1660e01b815260040161134a93929190611f22565b600060405180830381600087803b15801561136457600080fd5b505af1158015611378573d6000803e3d6000fd5b50505050336006600087815260200190815260200160002060050160006101000a81548173ffffffffffffffffffffffffffffffffffffffff021916908373ffffffffffffffffffffffffffffffffffffffff16021790555060016006600087815260200190815260200160002060070160006101000a81548160ff02191690831515021790555061140a6002611a6b565b5050505060016000819055505050565b60026000541415611460576040517f08c379a000000000000000000000000000000000000000000000000000000000815260040161145790611fbb565b60405180910390fd5b6002600081905550600082116114ab576040517f08c379a00000000000000000000000000000000000000000000000000000000081526004016114a290611fdb565b60405180910390fd5b336006600085815260200190815260200160002060040160006101000a81548173ffffffffffffffffffffffffffffffffffffffff021916908373ffffffffffffffffffffffffffffffffffffffff16021790555060006006600085815260200190815260200160002060050160006101000a81548173ffffffffffffffffffffffffffffffffffffffff021916908373ffffffffffffffffffffffffffffffffffffffff16021790555081600660008581526020019081526020016000206006018190555080600660008581526020019081526020016000206008018190555060006006600085815260200190815260200160002060070160006101000a81548160ff0219169083151502179055506115c56002611a81565b8373ffffffffffffffffffffffffffffffffffffffff166323b872dd333060066000888152602001908152602001600020600201546040518463ffffffff1660e01b815260040161161893929190611f22565b600060405180830381600087803b15801561163257600080fd5b505af1158015611646573d6000803e3d6000fd5b50505050600160008190555050505050565b8060058190555050565b606060006116706001611a5d565b905060008060005b83811015611719573373ffffffffffffffffffffffffffffffffffffffff16600660006001846116a89190612045565b815260200190815260200160002060030160009054906101000a900473ffffffffffffffffffffffffffffffffffffffff1673ffffffffffffffffffffffffffffffffffffffff161415611706576001836117039190612045565b92505b8080611711906121b4565b915050611678565b5060008267ffffffffffffffff81111561175c577f4e487b7100000000000000000000000000000000000000000000000000000000600052604160045260246000fd5b60405190808252806020026020018201604052801561179557816020015b611782611add565b81526020019060019003908161177a5790505b50905060005b84811015611a52573373ffffffffffffffffffffffffffffffffffffffff16600660006001846117cb9190612045565b815260200190815260200160002060030160009054906101000a900473ffffffffffffffffffffffffffffffffffffffff1673ffffffffffffffffffffffffffffffffffffffff161415611a3f5760006001826118289190612045565b905060006006600083815260200190815260200160002090508060405180610120016040529081600082015481526020016001820160009054906101000a900473ffffffffffffffffffffffffffffffffffffffff1673ffffffffffffffffffffffffffffffffffffffff1673ffffffffffffffffffffffffffffffffffffffff168152602001600282015481526020016003820160009054906101000a900473ffffffffffffffffffffffffffffffffffffffff1673ffffffffffffffffffffffffffffffffffffffff1673ffffffffffffffffffffffffffffffffffffffff1681526020016004820160009054906101000a900473ffffffffffffffffffffffffffffffffffffffff1673ffffffffffffffffffffffffffffffffffffffff1673ffffffffffffffffffffffffffffffffffffffff1681526020016005820160009054906101000a900473ffffffffffffffffffffffffffffffffffffffff1673ffffffffffffffffffffffffffffffffffffffff1673ffffffffffffffffffffffffffffffffffffffff168152602001600682015481526020016007820160009054906101000a900460ff16151515158152602001600882015481525050848681518110611a22577f4e487b7100000000000000000000000000000000000000000000000000000000600052603260045260246000fd5b6020026020010181905250600185611a3a9190612045565b945050505b8080611a4a906121b4565b91505061179b565b508094505050505090565b600081600001549050919050565b6001816000016000828254019250508190555050565b60008160000154905060008111611acd576040517f08c379a0000000000000000000000000000000000000000000000000000000008152600401611ac490611f7b565b60405180910390fd5b6001810382600001819055505050565b60405180610120016040528060008152602001600073ffffffffffffffffffffffffffffffffffffffff16815260200160008152602001600073ffffffffffffffffffffffffffffffffffffffff168152602001600073ffffffffffffffffffffffffffffffffffffffff168152602001600073ffffffffffffffffffffffffffffffffffffffff16815260200160008152602001600015158152602001600081525090565b600081359050611b9281612325565b92915050565b600081359050611ba78161233c565b92915050565b600060208284031215611bbf57600080fd5b6000611bcd84828501611b83565b91505092915050565b60008060408385031215611be957600080fd5b6000611bf785828601611b83565b9250506020611c0885828601611b98565b9150509250929050565b60008060008060808587031215611c2857600080fd5b6000611c3687828801611b83565b9450506020611c4787828801611b98565b9350506040611c5887828801611b98565b9250506060611c6987828801611b98565b91505092959194509250565b600060208284031215611c8757600080fd5b6000611c9584828501611b98565b91505092915050565b6000611caa8383611dec565b6101208301905092915050565b611cc08161216c565b82525050565b611ccf8161215a565b82525050565b611cde8161215a565b82525050565b6000611cef8261200b565b611cf98185612023565b9350611d0483611ffb565b8060005b83811015611d35578151611d1c8882611c9e565b9750611d2783612016565b925050600181019050611d08565b5085935050505092915050565b611d4b8161217e565b82525050565b611d5a8161217e565b82525050565b6000611d6d601b83612034565b9150611d788261225b565b602082019050919050565b6000611d90604083612034565b9150611d9b82612284565b604082019050919050565b6000611db3601f83612034565b9150611dbe826122d3565b602082019050919050565b6000611dd6601c83612034565b9150611de1826122fc565b602082019050919050565b61012082016000820151611e036000850182611ea3565b506020820151611e166020850182611cc6565b506040820151611e296040850182611ea3565b506060820151611e3c6060850182611cb7565b506080820151611e4f6080850182611cb7565b5060a0820151611e6260a0850182611cb7565b5060c0820151611e7560c0850182611ea3565b5060e0820151611e8860e0850182611d42565b50610100820151611e9d610100850182611ea3565b50505050565b611eac816121aa565b82525050565b611ebb816121aa565b82525050565b600060c082019050611ed66000830189611cd5565b611ee36020830188611cd5565b611ef06040830187611cd5565b611efd6060830186611eb2565b611f0a6080830185611d51565b611f1760a0830184611eb2565b979650505050505050565b6000606082019050611f376000830186611cd5565b611f446020830185611cd5565b611f516040830184611eb2565b949350505050565b60006020820190508181036000830152611f738184611ce4565b905092915050565b60006020820190508181036000830152611f9481611d60565b9050919050565b60006020820190508181036000830152611fb481611d83565b9050919050565b60006020820190508181036000830152611fd481611da6565b9050919050565b60006020820190508181036000830152611ff481611dc9565b9050919050565b6000819050602082019050919050565b600081519050919050565b6000602082019050919050565b600082825260208201905092915050565b600082825260208201905092915050565b6000612050826121aa565b915061205b836121aa565b9250827fffffffffffffffffffffffffffffffffffffffffffffffffffffffffffffffff038211156120905761208f6121fd565b5b828201905092915050565b60006120a6826121aa565b91506120b1836121aa565b9250826120c1576120c061222c565b5b828204905092915050565b60006120d7826121aa565b91506120e2836121aa565b9250817fffffffffffffffffffffffffffffffffffffffffffffffffffffffffffffffff048311821515161561211b5761211a6121fd565b5b828202905092915050565b6000612131826121aa565b915061213c836121aa565b92508282101561214f5761214e6121fd565b5b828203905092915050565b60006121658261218a565b9050919050565b60006121778261218a565b9050919050565b60008115159050919050565b600073ffffffffffffffffffffffffffffffffffffffff82169050919050565b6000819050919050565b60006121bf826121aa565b91507fffffffffffffffffffffffffffffffffffffffffffffffffffffffffffffffff8214156121f2576121f16121fd565b5b600182019050919050565b7f4e487b7100000000000000000000000000000000000000000000000000000000600052601160045260246000fd5b7f4e487b7100000000000000000000000000000000000000000000000000000000600052601260045260246000fd5b7f436f756e7465723a2064656372656d656e74206f766572666c6f770000000000600082015250565b7f506c65617365207375626d6974207468652061736b696e67207072696365206960008201527f6e206f7264657220746f20636f6d706c65746520746865207075726368617365602082015250565b7f5265656e7472616e637947756172643a207265656e7472616e742063616c6c00600082015250565b7f5072696365206d757374206265206174206c6561737420312077656900000000600082015250565b61232e8161215a565b811461233957600080fd5b50565b612345816121aa565b811461235057600080fd5b5056fea264697066735822122002c0d9bbc6728f3c47a319794b27d6928a5c20b523f5e23bb9af89849c4bf63664736f6c63430008040033",
  "linkReferences": {},
  "deployedLinkReferences": {}
}